{
  "transactions": [
    {
      "hash": "0xcda0333a953de92853a1e3dfbea26523db06a5a9060bc858a075466f8709c71c",
      "transactionType": "CALL",
      "contractName": null,
      "contractAddress": "0xfbDF05c9729655316759D65e4EA14c0BBD921B17",
      "function": "setPeer(uint32,bytes32)",
      "arguments": [
        "40231",
        "0x000000000000000000000000cbe7d5711dfe8b499a1ac3cfafa90e5413b0e936"
      ],
      "transaction": {
        "from": "0x553199572773F818170afF2e523Dc5Ef8B4D9512",
        "to": "0xfbDF05c9729655316759D65e4EA14c0BBD921B17",
        "gas": "0x10027",
        "value": "0x0",
        "input": "0x3400288b0000000000000000000000000000000000000000000000000000000000009d27000000000000000000000000cbe7d5711dfe8b499a1ac3cfafa90e5413b0e936",
        "nonce": "0x32",
        "chainId": "0xaa37dc"
      },
      "additionalContracts": [],
      "isFixedGasLimit": false
    }
  ],
  "receipts": [
    {
      "status": "0x1",
      "cumulativeGasUsed": "0xa2f03",
      "logs": [
        {
          "address": "0xfbDF05c9729655316759D65e4EA14c0BBD921B17",
          "topics": [
            "0x238399d427b947898edb290f5ff0f9109849b1c3ba196a42e35f00c50a54b98b"
          ],
          "data": "0x0000000000000000000000000000000000000000000000000000000000009d27000000000000000000000000cbe7d5711dfe8b499a1ac3cfafa90e5413b0e936",
          "blockHash": "0x152fe4d929227a86b3843070071de270b024df210bc7372e8e3f461c0bd37685",
          "blockNumber": "0x117ee3b",
          "transactionHash": "0xcda0333a953de92853a1e3dfbea26523db06a5a9060bc858a075466f8709c71c",
          "transactionIndex": "0x5",
          "logIndex": "0x4",
          "removed": false
        }
      ],
      "logsBloom": "0x00000000000000000000000000000000000000000000000000000000000000000000000000000000000000000000000000000000000000000800000000000000000000000000000000000000000000000000000000000000000000000000000000000000000000000000000000000000000000000000000000000000000000000000000000000000000000000000000000000000000000000000008000000000000000000000000000000000000000000000000000000000000002000000000000000000000000000000000080000000000000000000000000040000000000000000000000000000000000000000010000000000000000000000000000000000",
      "type": "0x2",
      "transactionHash": "0xcda0333a953de92853a1e3dfbea26523db06a5a9060bc858a075466f8709c71c",
      "transactionIndex": "0x5",
      "blockHash": "0x152fe4d929227a86b3843070071de270b024df210bc7372e8e3f461c0bd37685",
      "blockNumber": "0x117ee3b",
      "gasUsed": "0xb974",
      "effectiveGasPrice": "0xf6b2f",
      "from": "0x553199572773F818170afF2e523Dc5Ef8B4D9512",
      "to": "0xfbDF05c9729655316759D65e4EA14c0BBD921B17",
      "contractAddress": null,
      "l1BaseFeeScalar": "0x1db0",
      "l1BlobBaseFee": "0x1",
      "l1BlobBaseFeeScalar": "0xd2730",
      "l1Fee": "0x61444f",
      "l1GasPrice": "0x7ffb2",
      "l1GasUsed": "0x640"
    }
  ],
  "libraries": [],
  "pending": [],
  "returns": {},
  "timestamp": 1728493606,
  "chain": 11155420,
  "commit": "8b2b136"
}