{
  "transactions": [
    {
      "hash": "0x2e24c910434d277330017cd8ea280d34b0610bac6f58ddb308081c3b7d104c3f",
      "transactionType": "CALL",
      "contractName": null,
      "contractAddress": "0xCBE7D5711DFE8B499A1aC3cfAfA90e5413b0E936",
      "function": "setPeer(uint32,bytes32)",
      "arguments": [
        "40161",
        "0x0000000000000000000000007494969735c497e6c2cf7dc064da6e2e56a526ba"
      ],
      "transaction": {
        "from": "0x553199572773F818170afF2e523Dc5Ef8B4D9512",
        "to": "0xCBE7D5711DFE8B499A1aC3cfAfA90e5413b0E936",
        "gas": "0xf3cb",
        "value": "0x0",
        "input": "0x3400288b0000000000000000000000000000000000000000000000000000000000009ce10000000000000000000000007494969735c497e6c2cf7dc064da6e2e56a526ba",
        "nonce": "0xae",
        "chainId": "0x66eee"
      },
      "additionalContracts": [],
      "isFixedGasLimit": false
    },
    {
      "hash": "0xe0ab122e163f93096eb7666f911997cb1c46fd262420258d91dcebd65b2cfb9e",
      "transactionType": "CALL",
      "contractName": null,
      "contractAddress": "0xCBE7D5711DFE8B499A1aC3cfAfA90e5413b0E936",
      "function": "setPeer(uint32,bytes32)",
      "arguments": [
        "40232",
        "0x000000000000000000000000fbdf05c9729655316759d65e4ea14c0bbd921b17"
      ],
      "transaction": {
        "from": "0x553199572773F818170afF2e523Dc5Ef8B4D9512",
        "to": "0xCBE7D5711DFE8B499A1aC3cfAfA90e5413b0E936",
        "gas": "0xf3cb",
        "value": "0x0",
        "input": "0x3400288b0000000000000000000000000000000000000000000000000000000000009d28000000000000000000000000fbdf05c9729655316759d65e4ea14c0bbd921b17",
        "nonce": "0xaf",
        "chainId": "0x66eee"
      },
      "additionalContracts": [],
      "isFixedGasLimit": false
    }
  ],
  "receipts": [
    {
      "status": "0x1",
      "cumulativeGasUsed": "0x34ff6",
      "logs": [
        {
          "address": "0xCBE7D5711DFE8B499A1aC3cfAfA90e5413b0E936",
          "topics": [
            "0x238399d427b947898edb290f5ff0f9109849b1c3ba196a42e35f00c50a54b98b"
          ],
          "data": "0x0000000000000000000000000000000000000000000000000000000000009ce10000000000000000000000007494969735c497e6c2cf7dc064da6e2e56a526ba",
          "blockHash": "0xf23fb79c82f26acee055b8c46339d40d1f388bfd48b325dace4d5ae813b79991",
          "blockNumber": "0x532c8ff",
          "transactionHash": "0x2e24c910434d277330017cd8ea280d34b0610bac6f58ddb308081c3b7d104c3f",
          "transactionIndex": "0x2",
          "logIndex": "0x8",
          "removed": false
        }
      ],
      "logsBloom": "0x00000000000000000000000000000000000000000000000000000000000000000000000000000000000000000000000000000000000000001800000000000200000000000000000000000000000000000000000000000000000000000000000000000000000000000000000000000000000000000000000000000000000000000000000000000000000000000000000000000000000000000000000000000000000000000000000000000000000000000000000000040000000002000000000000000000000000000000000000000000000000000000000000040000000000000000000000000000000000000000000000000000000000000000000000000000",
      "type": "0x2",
      "transactionHash": "0x2e24c910434d277330017cd8ea280d34b0610bac6f58ddb308081c3b7d104c3f",
      "transactionIndex": "0x2",
      "blockHash": "0xf23fb79c82f26acee055b8c46339d40d1f388bfd48b325dace4d5ae813b79991",
      "blockNumber": "0x532c8ff",
      "gasUsed": "0xba08",
      "effectiveGasPrice": "0x5f5e100",
      "from": "0x553199572773F818170afF2e523Dc5Ef8B4D9512",
      "to": "0xCBE7D5711DFE8B499A1aC3cfAfA90e5413b0E936",
      "contractAddress": null,
      "gasUsedForL1": "0x0",
      "l1BlockNumber": "0x6873c6"
    },
    {
      "status": "0x1",
      "cumulativeGasUsed": "0x5e3ce",
      "logs": [
        {
          "address": "0xCBE7D5711DFE8B499A1aC3cfAfA90e5413b0E936",
          "topics": [
            "0x238399d427b947898edb290f5ff0f9109849b1c3ba196a42e35f00c50a54b98b"
          ],
          "data": "0x0000000000000000000000000000000000000000000000000000000000009d28000000000000000000000000fbdf05c9729655316759d65e4ea14c0bbd921b17",
          "blockHash": "0x140048f0d0022faf0358003497df0076bea5e4099f0afee11970e3bb82fa5dfd",
          "blockNumber": "0x532c906",
          "transactionHash": "0xe0ab122e163f93096eb7666f911997cb1c46fd262420258d91dcebd65b2cfb9e",
          "transactionIndex": "0x3",
          "logIndex": "0x2",
          "removed": false
        }
      ],
      "logsBloom": "0x00000000000000000000000000000000000000000000000000000000000000000000000000000000000000000000000000000000000000001800000000000200000000000000000000000000000000000000000000000000000000000000000000000000000000000000000000000000000000000000000000000000000000000000000000000000000000000000000000000000000000000000000000000000000000000000000000000000000000000000000000040000000002000000000000000000000000000000000000000000000000000000000000040000000000000000000000000000000000000000000000000000000000000000000000000000",
      "type": "0x2",
      "transactionHash": "0xe0ab122e163f93096eb7666f911997cb1c46fd262420258d91dcebd65b2cfb9e",
      "transactionIndex": "0x3",
      "blockHash": "0x140048f0d0022faf0358003497df0076bea5e4099f0afee11970e3bb82fa5dfd",
      "blockNumber": "0x532c906",
      "gasUsed": "0xba08",
      "effectiveGasPrice": "0x5f5e100",
      "from": "0x553199572773F818170afF2e523Dc5Ef8B4D9512",
      "to": "0xCBE7D5711DFE8B499A1aC3cfAfA90e5413b0E936",
      "contractAddress": null,
      "gasUsedForL1": "0x0",
      "l1BlockNumber": "0x6873c6"
    }
  ],
  "libraries": [],
  "pending": [],
  "returns": {},
  "timestamp": 1728493566,
  "chain": 421614,
  "commit": "8b2b136"
}